{
    "_format": "hh-sol-artifact-1",
    "contractName": "FAANGStrategyKovan",
    "sourceName": "contracts/FAANG/strategyFAANGKovan.sol",
    "abi": [
        {
            "inputs": [
                {
                    "internalType": "address",
                    "name": "_treasuryWallet",
                    "type": "address"
                },
                {
                    "internalType": "address",
                    "name": "_mirustPool",
                    "type": "address"
                },
                {
                    "internalType": "address",
                    "name": "_admin",
                    "type": "address"
                },
                {
                    "internalType": "uint256[]",
                    "name": "weights",
                    "type": "uint256[]"
                },
                {
                    "internalType": "contract IERC20[]",
                    "name": "mAssetsTokens",
                    "type": "address[]"
                },
                {
                    "internalType": "contract ILPPool[]",
                    "name": "lpPools",
                    "type": "address[]"
                },
                {
                    "internalType": "contract IERC20[]",
                    "name": "lpTokens",
                    "type": "address[]"
                }
            ],
            "stateMutability": "nonpayable",
            "type": "constructor"
        },
        {
            "inputs": [],
            "name": "admin",
            "outputs": [
                {
                    "internalType": "address",
                    "name": "",
                    "type": "address"
                }
            ],
            "stateMutability": "view",
            "type": "function"
        },
        {
            "inputs": [
                {
                    "internalType": "contract IERC20",
                    "name": "",
                    "type": "address"
                }
            ],
            "name": "amountInPool",
            "outputs": [
                {
                    "internalType": "uint256",
                    "name": "",
                    "type": "uint256"
                }
            ],
            "stateMutability": "view",
            "type": "function"
        },
        {
            "inputs": [],
            "name": "curveFi",
            "outputs": [
                {
                    "internalType": "contract ICurveFi",
                    "name": "",
                    "type": "address"
                }
            ],
            "stateMutability": "view",
            "type": "function"
        },
        {
            "inputs": [
                {
                    "internalType": "uint256",
                    "name": "_amount",
                    "type": "uint256"
                },
                {
                    "internalType": "contract IERC20",
                    "name": "_token",
                    "type": "address"
                }
            ],
            "name": "deposit",
            "outputs": [],
            "stateMutability": "nonpayable",
            "type": "function"
        },
        {
            "inputs": [],
            "name": "factory",
            "outputs": [
                {
                    "internalType": "contract IUniswapV2Factory",
                    "name": "",
                    "type": "address"
                }
            ],
            "stateMutability": "view",
            "type": "function"
        },
        {
            "inputs": [],
            "name": "getTotalValueInPool",
            "outputs": [
                {
                    "internalType": "uint256",
                    "name": "value",
                    "type": "uint256"
                }
            ],
            "stateMutability": "view",
            "type": "function"
        },
        {
            "inputs": [
                {
                    "internalType": "uint256",
                    "name": "",
                    "type": "uint256"
                }
            ],
            "name": "mAssets",
            "outputs": [
                {
                    "internalType": "uint256",
                    "name": "weight",
                    "type": "uint256"
                },
                {
                    "internalType": "contract IERC20",
                    "name": "mAssetToken",
                    "type": "address"
                },
                {
                    "internalType": "contract ILPPool",
                    "name": "lpPool",
                    "type": "address"
                },
                {
                    "internalType": "contract IERC20",
                    "name": "lpToken",
                    "type": "address"
                },
                {
                    "internalType": "uint256",
                    "name": "amountOfATotal",
                    "type": "uint256"
                },
                {
                    "internalType": "uint256",
                    "name": "amountOfBTotal",
                    "type": "uint256"
                }
            ],
            "stateMutability": "view",
            "type": "function"
        },
        {
            "inputs": [
                {
                    "internalType": "contract ILPPool",
                    "name": "",
                    "type": "address"
                }
            ],
            "name": "poolStakedMIRLPToken",
            "outputs": [
                {
                    "internalType": "uint256",
                    "name": "",
                    "type": "uint256"
                }
            ],
            "stateMutability": "view",
            "type": "function"
        },
        {
            "inputs": [
                {
                    "internalType": "uint256[]",
                    "name": "weights",
                    "type": "uint256[]"
                }
            ],
            "name": "reBalance",
            "outputs": [],
            "stateMutability": "nonpayable",
            "type": "function"
        },
        {
            "inputs": [],
            "name": "reInvest",
            "outputs": [],
            "stateMutability": "nonpayable",
            "type": "function"
        },
        {
            "inputs": [],
            "name": "router",
            "outputs": [
                {
                    "internalType": "contract IUniswapV2Router02",
                    "name": "",
                    "type": "address"
                }
            ],
            "stateMutability": "view",
            "type": "function"
        },
        {
            "inputs": [
                {
                    "internalType": "address",
                    "name": "_admin",
                    "type": "address"
                }
            ],
            "name": "setAdmin",
            "outputs": [],
            "stateMutability": "nonpayable",
            "type": "function"
        },
        {
            "inputs": [
                {
                    "internalType": "address",
                    "name": "_vault",
                    "type": "address"
                }
            ],
            "name": "setVault",
            "outputs": [],
            "stateMutability": "nonpayable",
            "type": "function"
        },
        {
            "inputs": [],
            "name": "treasuryWallet",
            "outputs": [
                {
                    "internalType": "address",
                    "name": "",
                    "type": "address"
                }
            ],
            "stateMutability": "view",
            "type": "function"
        },
        {
            "inputs": [
                {
                    "internalType": "contract IERC20",
                    "name": "",
                    "type": "address"
                }
            ],
            "name": "userTotalLPToken",
            "outputs": [
                {
                    "internalType": "uint256",
                    "name": "",
                    "type": "uint256"
                }
            ],
            "stateMutability": "view",
            "type": "function"
        },
        {
            "inputs": [],
            "name": "vault",
            "outputs": [
                {
                    "internalType": "address",
                    "name": "",
                    "type": "address"
                }
            ],
            "stateMutability": "view",
            "type": "function"
        },
        {
            "inputs": [
                {
                    "internalType": "uint256",
                    "name": "_amount",
                    "type": "uint256"
                },
                {
                    "internalType": "contract IERC20",
                    "name": "_token",
                    "type": "address"
                }
            ],
            "name": "withdraw",
            "outputs": [],
            "stateMutability": "nonpayable",
            "type": "function"
        },
        {
            "inputs": [
                {
                    "internalType": "contract IERC20",
                    "name": "_tokenToConvert",
                    "type": "address"
                }
            ],
            "name": "withdrawAllFunds",
            "outputs": [],
            "stateMutability": "nonpayable",
            "type": "function"
        }
    ],
    "bytecode": "0x6080604052600080546001600160a01b031990811673a47c8bf37f92abed4a126bda807a7b7498661acd179091556001805482167309a3ecafa817268f77be1283176b946c4ff2e60817905560028054821673890f4e345b1daed0367a877a1612f86a1f86985f179055600380548216737a250d5630b4cf539739df2c5dacb4c659f2488d179055600480548216735c69bee701ef814a2b6a3edd4b1652cb9cc5aa6f1790556008805482167387da823b6fc8eb8575a235a824690fda94674c88908117909155600980548316736b175474e89094c44da98b954eedeac495271d0f179055600a8054909216179055348015620000fb57600080fd5b5060405162004dba38038062004dba833981810160405260e08110156200012157600080fd5b8151602083015160408085015160608601805192519496939591949391820192846401000000008211156200015557600080fd5b9083019060208201858111156200016b57600080fd5b82518660208202830111640100000000821117156200018957600080fd5b82525081516020918201928201910280838360005b83811015620001b85781810151838201526020016200019e565b5050505090500160405260200180516040519392919084640100000000821115620001e257600080fd5b908301906020820185811115620001f857600080fd5b82518660208202830111640100000000821117156200021657600080fd5b82525081516020918201928201910280838360005b83811015620002455781810151838201526020016200022b565b50505050905001604052602001805160405193929190846401000000008211156200026f57600080fd5b9083019060208201858111156200028557600080fd5b8251866020820283011164010000000082111715620002a357600080fd5b82525081516020918201928201910280838360005b83811015620002d2578181015183820152602001620002b8565b5050505090500160405260200180516040519392919084640100000000821115620002fc57600080fd5b9083019060208201858111156200031257600080fd5b82518660208202830111640100000000821117156200033057600080fd5b82525081516020918201928201910280838360005b838110156200035f57818101518382015260200162000345565b5050505090500160405250505084600760006101000a8154816001600160a01b0302191690836001600160a01b031602179055506002600c600073b7a4f3e9097c08da09517b5ab877f7a917224ede6001600160a01b03166001600160a01b0316815260200190815260200160002060006101000a8154816001600160801b030219169083600f0b6001600160801b031602179055506003600c60007307de306ff27a2b630b1141956844eb1552b956b56001600160a01b03166001600160a01b0316815260200190815260200160002060006101000a8154816001600160801b030219169083600f0b6001600160801b031602179055506001600c6000734f96fe3b7a6cf9725f59d353f723c1bdb64ca6aa6001600160a01b03166001600160a01b0316815260200190815260200160002060006101000a8154816001600160801b030219169083600f0b6001600160801b0316021790555086600660006101000a8154816001600160a01b0302191690836001600160a01b0316021790555085600b60006101000a8154816001600160a01b0302191690836001600160a01b03160217905550734f96fe3b7a6cf9725f59d353f723c1bdb64ca6aa6001600160a01b031663095ea7b3600360009054906101000a90046001600160a01b03166000196040518363ffffffff1660e01b815260040180836001600160a01b0316815260200182815260200192505050602060405180830381600087803b1580156200058a57600080fd5b505af11580156200059f573d6000803e3d6000fd5b505050506040513d6020811015620005b657600080fd5b50506002546040805163095ea7b360e01b81526001600160a01b039092166004830152600019602483015251734f96fe3b7a6cf9725f59d353f723c1bdb64ca6aa9163095ea7b39160448083019260209291908290030181600087803b1580156200062057600080fd5b505af115801562000635573d6000803e3d6000fd5b505050506040513d60208110156200064c57600080fd5b50506003546040805163095ea7b360e01b81526001600160a01b03909216600483015260001960248301525173b7a4f3e9097c08da09517b5ab877f7a917224ede9163095ea7b39160448083019260209291908290030181600087803b158015620006b657600080fd5b505af1158015620006cb573d6000803e3d6000fd5b505050506040513d6020811015620006e257600080fd5b50506002546040805163095ea7b360e01b81526001600160a01b03909216600483015260001960248301525173b7a4f3e9097c08da09517b5ab877f7a917224ede9163095ea7b39160448083019260209291908290030181600087803b1580156200074c57600080fd5b505af115801562000761573d6000803e3d6000fd5b505050506040513d60208110156200077857600080fd5b5050600354620007b6907307de306ff27a2b630b1141956844eb1552b956b5906001600160a01b03166000196200092f602090811b6200335d17901c565b600254620007f2907307de306ff27a2b630b1141956844eb1552b956b5906001600160a01b03166000196200092f602090811b6200335d17901c565b60005b8451811015620009215760106040518060c001604052808784815181106200081957fe5b602002602001015181526020018684815181106200083357fe5b60200260200101516001600160a01b031681526020018584815181106200085657fe5b60200260200101516001600160a01b031681526020018484815181106200087957fe5b6020908102919091018101516001600160a01b039081168352600083830181905260409384018190528554600180820188559682529083902085516006909202019081559184015182860180546001600160a01b031990811692841692909217905592840151600283018054851691831691909117905560608401516003830180549094169116179091556080820151600482015560a09091015160059091015501620007f5565b505050505050505062000d41565b801580620009b9575060408051636eb1769f60e11b81523060048201526001600160a01b03848116602483015291519185169163dd62ed3e91604480820192602092909190829003018186803b1580156200098957600080fd5b505afa1580156200099e573d6000803e3d6000fd5b505050506040513d6020811015620009b557600080fd5b5051155b620009f65760405162461bcd60e51b815260040180806020018281038252603681526020018062004d846036913960400191505060405180910390fd5b604080516001600160a01b038416602482015260448082018490528251808303909101815260649091019091526020810180516001600160e01b0390811663095ea7b360e01b1790915262000a4e91859162000a5316565b505050565b600062000aaf826040518060400160405280602081526020017f5361666545524332303a206c6f772d6c6576656c2063616c6c206661696c6564815250856001600160a01b031662000b0f60201b620034a7179092919060201c565b80519091501562000a4e5780806020019051602081101562000ad057600080fd5b505162000a4e5760405162461bcd60e51b815260040180806020018281038252602a81526020018062004d5a602a913960400191505060405180910390fd5b606062000b20848460008562000b2a565b90505b9392505050565b60608247101562000b6d5760405162461bcd60e51b815260040180806020018281038252602681526020018062004d346026913960400191505060405180910390fd5b62000b788562000c91565b62000bca576040805162461bcd60e51b815260206004820152601d60248201527f416464726573733a2063616c6c20746f206e6f6e2d636f6e7472616374000000604482015290519081900360640190fd5b600080866001600160a01b031685876040518082805190602001908083835b6020831062000c0a5780518252601f19909201916020918201910162000be9565b6001836020036101000a03801982511681845116808217855250505050505090500191505060006040518083038185875af1925050503d806000811462000c6e576040519150601f19603f3d011682016040523d82523d6000602084013e62000c73565b606091505b50909250905062000c8682828662000c97565b979650505050505050565b3b151590565b6060831562000ca857508162000b23565b82511562000cb95782518084602001fd5b8160405162461bcd60e51b81526004018080602001828103825283818151815260200191508051906020019080838360005b8381101562000d0557818101518382015260200162000ceb565b50505050905090810190601f16801562000d335780820380516001836020036101000a031916815260200191505b509250505060405180910390fd5b613fe38062000d516000396000f3fe608060405234801561001057600080fd5b50600436106101355760003560e01c80638f11029c116100b2578063eba624be11610081578063f851a44011610066578063f851a440146103d0578063f887ea40146103d8578063fbfa77cf146103e057610135565b8063eba624be14610384578063f747bef0146103aa57610135565b80638f11029c14610334578063c45a01551461036c578063c8ecaf3014610374578063e5f2c6511461037c57610135565b80634626402b116101095780636817031b116100ee5780636817031b146102bc5780636e553f65146102e2578063704b6c021461030e57610135565b80634626402b1461029057806350be99ad146102b457610135565b8062f714ce1461013a578063242d9b12146101685780632aaaa6f1146101c757806332dee40b1461026a575b600080fd5b6101666004803603604081101561015057600080fd5b50803590602001356001600160a01b03166103e8565b005b6101856004803603602081101561017e57600080fd5b5035610cbe565b604080519687526001600160a01b03958616602088015293851686850152919093166060850152608084019290925260a0830191909152519081900360c00190f35b610166600480360360208110156101dd57600080fd5b8101906020810181356401000000008111156101f857600080fd5b82018360208201111561020a57600080fd5b8035906020019184602083028401116401000000008311171561022c57600080fd5b919080806020026020016040519081016040528093929190818152602001838360200280828437600092019190915250929550610d13945050505050565b6101666004803603602081101561028057600080fd5b50356001600160a01b0316610f16565b6102986116c0565b604080516001600160a01b039092168252519081900360200190f35b6101666116cf565b610166600480360360208110156102d257600080fd5b50356001600160a01b03166125c0565b610166600480360360408110156102f857600080fd5b50803590602001356001600160a01b03166126ac565b6101666004803603602081101561032457600080fd5b50356001600160a01b0316612db8565b61035a6004803603602081101561034a57600080fd5b50356001600160a01b0316612e46565b60408051918252519081900360200190f35b610298612e58565b61035a612e67565b6102986132fd565b61035a6004803603602081101561039a57600080fd5b50356001600160a01b031661330c565b61035a600480360360208110156103c057600080fd5b50356001600160a01b031661331e565b610298613330565b61029861333f565b61029861334e565b6005546001600160a01b03163314610447576040805162461bcd60e51b815260206004820152600a60248201527f4f6e6c79205661756c7400000000000000000000000000000000000000000000604482015290519081900360640190fd5b6000821161049c576040805162461bcd60e51b815260206004820152600e60248201527f496e76616c696420416d6f756e74000000000000000000000000000000000000604482015290519081900360640190fd5b604080516002808252606082018352600092602083019080368337505060015482519293506001600160a01b0316918391506000906104d757fe5b6001600160a01b03928316602091820292909201015260005482519116908290600190811061050257fe5b60200260200101906001600160a01b031690816001600160a01b03168152505060005b601054811015610bf85760006105646010838154811061054157fe5b60009182526020909120600360069092020101546001600160a01b0316866134c0565b905060006001600160a01b03166010838154811061057e57fe5b60009182526020909120600260069092020101546001600160a01b03161461061d57601082815481106105ad57fe5b6000918252602082206002600690920201015460408051632e1a7d4d60e01b81526004810185905290516001600160a01b0390921692632e1a7d4d9260248084019382900301818387803b15801561060457600080fd5b505af1158015610618573d6000803e3d6000fd5b505050505b6003546010805460009283926001600160a01b039091169163baa2abde91908790811061064657fe5b600091825260208220600160069092020101548154604080516001600160e01b031960e087901b1681526001600160a01b0393841660048201529190921660248201526044810188905260648101839052608481018390523060a48201524260c4820152815160e48083019491928390030190829087803b1580156106ca57600080fd5b505af11580156106de573d6000803e3d6000fd5b505050506040513d60408110156106f457600080fd5b508051602090910151601080549294509092506000918491908790811061071757fe5b906000526020600020906006020160040154106107345782610754565b6010858154811061074157fe5b9060005260206000209060060201600401545b90506000826010878154811061076657fe5b9060005260206000209060060201600501541061078357826107a3565b6010868154811061079057fe5b9060005260206000209060060201600501545b90506107d682601088815481106107b657fe5b90600052602060002090600602016004015461350390919063ffffffff16565b601087815481106107e357fe5b906000526020600020906006020160040181905550610829816010888154811061080957fe5b90600052602060002090600602016005015461350390919063ffffffff16565b6010878154811061083657fe5b9060005260206000209060060201600501819055506010868154811061085857fe5b6000918252602082206001600690920201015488516001600160a01b0390911691899161088157fe5b6001600160a01b0392831660209182029290920101526000548851911690889060019081106108ac57fe5b60200260200101906001600160a01b031690816001600160a01b0316815250506000600360009054906101000a90046001600160a01b03166001600160a01b03166338ed17398660008b30426040518663ffffffff1660e01b81526004018086815260200185815260200180602001846001600160a01b03168152602001838152602001828103825285818151815260200191508051906020019060200280838360005b83811015610968578181015183820152602001610950565b505050509050019650505050505050600060405180830381600087803b15801561099157600080fd5b505af11580156109a5573d6000803e3d6000fd5b505050506040513d6000823e601f3d908101601f1916820160405260208110156109ce57600080fd5b81019080805160405193929190846401000000008211156109ee57600080fd5b908301906020820185811115610a0357600080fd5b8251866020820283011164010000000082111715610a2057600080fd5b82525081516020918201928201910280838360005b83811015610a4d578181015183820152602001610a35565b505050509050016040525050509050600260009054906101000a90046001600160a01b03166001600160a01b031663a6417ed66000600c60008d6001600160a01b03166001600160a01b0316815260200190815260200160002060009054906101000a9004600f0b610adc8886600181518110610ac657fe5b602002602001015161356590919063ffffffff16565b60006040518563ffffffff1660e01b81526004018085815260200184600f0b8152602001838152602001828152602001945050505050602060405180830381600087803b158015610b2c57600080fd5b505af1158015610b40573d6000803e3d6000fd5b505050506040513d6020811015610b5657600080fd5b505060108054610ba6918891600d916000918c908110610b7257fe5b60009182526020808320600360069093020191909101546001600160a01b0316835282019290925260400190205490613503565b600d600060108a81548110610bb757fe5b60009182526020808320600360069093020191909101546001600160a01b031683528201929092526040019020555050506001939093019250610525915050565b5060008360115410610c0a5783610c0e565b6011545b601154909150610c1e9082613503565b601155610c2a846135bf565b610cb833846001600160a01b03166370a08231306040518263ffffffff1660e01b815260040180826001600160a01b0316815260200191505060206040518083038186803b158015610c7b57600080fd5b505afa158015610c8f573d6000803e3d6000fd5b505050506040513d6020811015610ca557600080fd5b50516001600160a01b038616919061393d565b50505050565b60108181548110610cce57600080fd5b60009182526020909120600690910201805460018201546002830154600384015460048501546005909501549395506001600160a01b03928316949183169392169186565b6007546001600160a01b03163314610d72576040805162461bcd60e51b815260206004820152600c60248201527f4e6f7420616e2061646d696e0000000000000000000000000000000000000000604482015290519081900360640190fd5b601054815114610dc9576040805162461bcd60e51b815260206004820152601660248201527f576569676874206c656e677468206d69736d6174636800000000000000000000604482015290519081900360640190fd5b60005b8151811015610f1257600060108281548110610de457fe5b60009182526020918290206040805160c08101825260069093029091018054835260018101546001600160a01b03908116948401949094526002810154841691830191909152600381015490921660608201526004820154608082015260059091015460a08201528351909150839083908110610e5d57fe5b60200260200101518160000181815250508060108381548110610e7c57fe5b6000918252602091829020835160069092020190815590820151600180830180546001600160a01b0393841673ffffffffffffffffffffffffffffffffffffffff199182161790915560408501516002850180549185169183169190911790556060850151600385018054919094169116179091556080830151600483015560a090920151600590910155919091019050610dcc565b5050565b6005546001600160a01b03163314610f75576040805162461bcd60e51b815260206004820152600a60248201527f6f6e6c79205661756c7400000000000000000000000000000000000000000000604482015290519081900360640190fd5b604080516002808252606082018352600092602083019080368337505060005482519293506001600160a01b0316918391506001908110610fb257fe5b60200260200101906001600160a01b031690816001600160a01b03168152505060005b60105481101561148957600060108281548110610fee57fe5b600091825260209182902060036006909202010154604080516370a0823160e01b815230600482015290516001600160a01b03909216926370a0823192602480840193829003018186803b15801561104557600080fd5b505afa158015611059573d6000803e3d6000fd5b505050506040513d602081101561106f57600080fd5b5051601080549192506000918490811061108557fe5b60009182526020909120600260069092020101546001600160a01b0316146111bc57601082815481106110b457fe5b600091825260209182902060026006909202010154604080516370a0823160e01b815230600482015290516001600160a01b03909216926370a0823192602480840193829003018186803b15801561110b57600080fd5b505afa15801561111f573d6000803e3d6000fd5b505050506040513d602081101561113557600080fd5b5051905080156111bc576010828154811061114c57fe5b6000918252602082206002600690920201015460408051632e1a7d4d60e01b81526004810185905290516001600160a01b0390921692632e1a7d4d9260248084019382900301818387803b1580156111a357600080fd5b505af11580156111b7573d6000803e3d6000fd5b505050505b801561148057600354601080546000926001600160a01b03169163baa2abde91869081106111e657fe5b600091825260208220600160069092020101548154604080516001600160e01b031960e087901b1681526001600160a01b0393841660048201529190921660248201526044810187905260648101839052608481018390523060a48201524260c4820152815160e48083019491928390030190829087803b15801561126a57600080fd5b505af115801561127e573d6000803e3d6000fd5b505050506040513d604081101561129457600080fd5b50516010805491925090849081106112a857fe5b6000918252602082206001600690920201015485516001600160a01b039091169186916112d157fe5b60200260200101906001600160a01b031690816001600160a01b031681525050600360009054906101000a90046001600160a01b03166001600160a01b03166338ed17398260008730426040518663ffffffff1660e01b81526004018086815260200185815260200180602001846001600160a01b03168152602001838152602001828103825285818151815260200191508051906020019060200280838360005b8381101561138b578181015183820152602001611373565b505050509050019650505050505050600060405180830381600087803b1580156113b457600080fd5b505af11580156113c8573d6000803e3d6000fd5b505050506040513d6000823e601f3d908101601f1916820160405260208110156113f157600080fd5b810190808051604051939291908464010000000082111561141157600080fd5b90830190602082018581111561142657600080fd5b825186602082028301116401000000008211171561144357600080fd5b82525081516020918201928201910280838360005b83811015611470578181015183820152602001611458565b5050505090500160405250505050505b50600101610fd5565b506114956011546135bf565b600054604080516370a0823160e01b815230600482015290516001600160a01b03909216916370a0823191602480820192602092909190829003018186803b1580156114e057600080fd5b505afa1580156114f4573d6000803e3d6000fd5b505050506040513d602081101561150a57600080fd5b505115610f12576002546001600160a01b038381166000908152600c6020908152604080832054835482516370a0823160e01b815230600482015292519686169663a6417ed696600f9390930b9491909216926370a082319260248083019392829003018186803b15801561157e57600080fd5b505afa158015611592573d6000803e3d6000fd5b505050506040513d60208110156115a857600080fd5b5051604080516001600160e01b031960e087901b1681526004810194909452600f9290920b6024840152604483015260006064830181905290516084808401936020939083900390910190829087803b15801561160457600080fd5b505af1158015611618573d6000803e3d6000fd5b505050506040513d602081101561162e57600080fd5b5050600554604080516370a0823160e01b81523060048201529051610f12926001600160a01b0390811692908616916370a0823191602480820192602092909190829003018186803b15801561168357600080fd5b505afa158015611697573d6000803e3d6000fd5b505050506040513d60208110156116ad57600080fd5b50516001600160a01b038516919061393d565b6006546001600160a01b031681565b6005546001600160a01b0316331461172e576040805162461bcd60e51b815260206004820152600a60248201527f6f6e6c79207661756c7400000000000000000000000000000000000000000000604482015290519081900360640190fd5b6040805160028082526060820183526000928392919060208301908036833701905050905060005b60105481101561235f5760006001600160a01b03166010828154811061177857fe5b60009182526020909120600260069092020101546001600160a01b031614612357576000601082815481106117a957fe5b600091825260209182902060026006909202010154604080517e8cc26200000000000000000000000000000000000000000000000000000000815230600482015290516001600160a01b0390921692628cc26292602480840193829003018186803b15801561181757600080fd5b505afa15801561182b573d6000803e3d6000fd5b505050506040513d602081101561184157600080fd5b5051905080156123555760015483516001600160a01b0390911690849060009061186757fe5b6001600160a01b03928316602091820292909201015260005484519116908490600190811061189257fe5b60200260200101906001600160a01b031690816001600160a01b031681525050601082815481106118bf57fe5b60009182526020822060026006909202010154604080517f3d18b91200000000000000000000000000000000000000000000000000000000815290516001600160a01b0390921692633d18b9129260048084019382900301818387803b15801561192857600080fd5b505af115801561193c573d6000803e3d6000fd5b50505050611953818561356590919063ffffffff16565b6003549094506000906001600160a01b03166338ed17396119826103e861197c866101c26139a8565b90613a01565b60008730426040518663ffffffff1660e01b81526004018086815260200185815260200180602001846001600160a01b03168152602001838152602001828103825285818151815260200191508051906020019060200280838360005b838110156119f75781810151838201526020016119df565b505050509050019650505050505050600060405180830381600087803b158015611a2057600080fd5b505af1158015611a34573d6000803e3d6000fd5b505050506040513d6000823e601f3d908101601f191682016040526020811015611a5d57600080fd5b8101908080516040519392919084640100000000821115611a7d57600080fd5b908301906020820185811115611a9257600080fd5b8251866020820283011164010000000082111715611aaf57600080fd5b82525081516020918201928201910280838360005b83811015611adc578181015183820152602001611ac4565b5050505090500160405250505090506000611b15600283600181518110611aff57fe5b6020026020010151613a0190919063ffffffff16565b905060108481548110611b2457fe5b906000526020600020906006020160010160009054906101000a90046001600160a01b031685600181518110611b5657fe5b6001600160a01b03909216602092830291909101909101526000611b8261271061197c866108ca6139a8565b600454600154601080549394506000936001600160a01b039384169363e6a43905931691908a908110611bb157fe5b600091825260209182902060016006909202010154604080516001600160e01b031960e087901b1681526001600160a01b03948516600482015293909116602484015251604480840193829003018186803b158015611c0f57600080fd5b505afa158015611c23573d6000803e3d6000fd5b505050506040513d6020811015611c3957600080fd5b50516001600160a01b03161415611ef9576040805160038082526080820190925260009160208201606080368337505060015482519293506060926001600160a01b0390911691508390600090611c8c57fe5b6001600160a01b039283166020918202929092010152600054835191169083906001908110611cb757fe5b60200260200101906001600160a01b031690816001600160a01b03168152505060108781548110611ce457fe5b906000526020600020906006020160010160009054906101000a90046001600160a01b031682600281518110611d1657fe5b60200260200101906001600160a01b031690816001600160a01b031681525050600360009054906101000a90046001600160a01b03166001600160a01b03166338ed17398460008530426040518663ffffffff1660e01b81526004018086815260200185815260200180602001846001600160a01b03168152602001838152602001828103825285818151815260200191508051906020019060200280838360005b83811015611dd0578181015183820152602001611db8565b505050509050019650505050505050600060405180830381600087803b158015611df957600080fd5b505af1158015611e0d573d6000803e3d6000fd5b505050506040513d6000823e601f3d908101601f191682016040526020811015611e3657600080fd5b8101908080516040519392919084640100000000821115611e5657600080fd5b908301906020820185811115611e6b57600080fd5b8251866020820283011164010000000082111715611e8857600080fd5b82525081516020918201928201910280838360005b83811015611eb5578181015183820152602001611e9d565b50505050905001604052505050905080600281518110611ed157fe5b602002602001015185600181518110611ee657fe5b6020026020010181815250505050612074565b6003546040516338ed173960e01b8152600481018381526000602483018190523060648401819052426084850181905260a0604486019081528c5160a48701528c516001600160a01b03909716966338ed17399689968f9594939092909160c40190602080880191028083838b5b83811015611f7f578181015183820152602001611f67565b505050509050019650505050505050600060405180830381600087803b158015611fa857600080fd5b505af1158015611fbc573d6000803e3d6000fd5b505050506040513d6000823e601f3d908101601f191682016040526020811015611fe557600080fd5b810190808051604051939291908464010000000082111561200557600080fd5b90830190602082018581111561201a57600080fd5b825186602082028301116401000000008211171561203757600080fd5b82525081516020918201928201910280838360005b8381101561206457818101518382015260200161204c565b5050505090500160405250505092505b600354601080546000926001600160a01b03169163e8e33700918990811061209857fe5b6000918252602082206001600690920201810154915488516001600160a01b03938416939190911691899181106120cb57fe5b60200260200101518760008030426040518963ffffffff1660e01b815260040180896001600160a01b03168152602001886001600160a01b03168152602001878152602001868152602001858152602001848152602001836001600160a01b0316815260200182815260200198505050505050505050606060405180830381600087803b15801561215b57600080fd5b505af115801561216f573d6000803e3d6000fd5b505050506040513d606081101561218557600080fd5b506040015160108054919250908790811061219c57fe5b600091825260208220600260069092020101546040805163534a7e1d60e11b81526004810185905290516001600160a01b039092169263a694fc3a9260248084019382900301818387803b1580156121f357600080fd5b505af1158015612207573d6000803e3d6000fd5b5050505061225481600d600060108a8154811061222057fe5b60009182526020808320600360069093020191909101546001600160a01b0316835282019290925260400190205490613565565b600d60006010898154811061226557fe5b60009182526020808320600360069093020191909101546001600160a01b0316835282019290925260400190205583516122db90859060019081106122a657fe5b6020026020010151601088815481106122bb57fe5b90600052602060002090600602016004015461356590919063ffffffff16565b601087815481106122e857fe5b90600052602060002090600602016004018190555061232e836010888154811061230e57fe5b90600052602060002090600602016005015461356590919063ffffffff16565b6010878154811061233b57fe5b906000526020600020906006020160050181905550505050505b505b600101611756565b508115610f1257600654612394906001600160a01b031661238184600a613a01565b6001546001600160a01b0316919061393d565b60035460015460008054604080516370a0823160e01b8152306004820152905192946001600160a01b039081169463e8e3370094908216939091169183916370a0823191602480820192602092909190829003018186803b1580156123f857600080fd5b505afa15801561240c573d6000803e3d6000fd5b505050506040513d602081101561242257600080fd5b5051600054604080516370a0823160e01b815230600482015290516001600160a01b03909216916370a0823191602480820192602092909190829003018186803b15801561246f57600080fd5b505afa158015612483573d6000803e3d6000fd5b505050506040513d602081101561249957600080fd5b5051604080516001600160e01b031960e088901b1681526001600160a01b0395861660048201529390941660248401526044830191909152606482015260006084820181905260a482018190523060c48301524260e483015291516101048083019360609383900390910190829087803b15801561251657600080fd5b505af115801561252a573d6000803e3d6000fd5b505050506040513d606081101561254057600080fd5b50604090810151600b54825163534a7e1d60e11b81526004810183905292519193506001600160a01b03169163a694fc3a91602480830192600092919082900301818387803b15801561259257600080fd5b505af11580156125a6573d6000803e3d6000fd5b50506012546125b89250905082613565565b601255505050565b6007546001600160a01b0316331461261f576040805162461bcd60e51b815260206004820152600a60248201527f4f6e6c792061646d696e00000000000000000000000000000000000000000000604482015290519081900360640190fd5b6005546001600160a01b03161561267d576040805162461bcd60e51b815260206004820152601060248201527f43616e6e6f7420736574207661756c7400000000000000000000000000000000604482015290519081900360640190fd5b6005805473ffffffffffffffffffffffffffffffffffffffff19166001600160a01b0392909216919091179055565b6005546001600160a01b031633146126f55760405162461bcd60e51b8152600401808060200182810382526021815260200180613f2d6021913960400191505060405180910390fd5b6000821161274a576040805162461bcd60e51b815260206004820152600e60248201527f496e76616c696420616d6f756e74000000000000000000000000000000000000604482015290519081900360640190fd5b600554612765906001600160a01b0383811691163085613a68565b6009546001600160a01b0382811691161461279a5761279561278c8364e8d4a510006139a8565b60115490613565565b6127a7565b6011546127a79083613565565b60115560408051600280825260608201835260009260208301908036833701905050905081816000815181106127d957fe5b6001600160a01b03928316602091820292909201015260005482519116908290600190811061280457fe5b6001600160a01b039283166020918202929092018101919091526002548483166000908152600c835260408082205481517fa6417ed6000000000000000000000000000000000000000000000000000000008152600f91820b90910b600482015260248101839052604481018990526064810183905290519194929092169263a6417ed6926084808201939182900301818787803b1580156128a557600080fd5b505af11580156128b9573d6000803e3d6000fd5b505050506040513d60208110156128cf57600080fd5b50519050606060005b601054811015612db0576000601082815481106128f157fe5b60009182526020822060016006909202010154815487516001600160a01b039283169450911691879161292057fe5b60200260200101906001600160a01b031690816001600160a01b031681525050808560018151811061294e57fe5b60200260200101906001600160a01b031690816001600160a01b031681525050600061299e61271061197c6010868154811061298657fe5b600091825260209091206006909102015488906139a8565b6003546040516338ed173960e01b8152600481018381526000602483018190523060648401819052426084850181905260a0604486019081528d5160a48701528d519798506001600160a01b03909616966338ed173996899694958f95909260c490910190602080880191028083838b5b83811015612a27578181015183820152602001612a0f565b505050509050019650505050505050600060405180830381600087803b158015612a5057600080fd5b505af1158015612a64573d6000803e3d6000fd5b505050506040513d6000823e601f3d908101601f191682016040526020811015612a8d57600080fd5b8101908080516040519392919084640100000000821115612aad57600080fd5b908301906020820185811115612ac257600080fd5b8251866020820283011164010000000082111715612adf57600080fd5b82525081516020918201928201910280838360005b83811015612b0c578181015183820152602001612af4565b5050505090500160405250505093506000600360009054906101000a90046001600160a01b03166001600160a01b031663e8e337008460008054906101000a90046001600160a01b031688600181518110612b6357fe5b60200260200101518660008030426040518963ffffffff1660e01b815260040180896001600160a01b03168152602001886001600160a01b03168152602001878152602001868152602001858152602001848152602001836001600160a01b0316815260200182815260200198505050505050505050606060405180830381600087803b158015612bf357600080fd5b505af1158015612c07573d6000803e3d6000fd5b505050506040513d6060811015612c1d57600080fd5b50604001516010805491925060009186908110612c3657fe5b60009182526020909120600260069092020101546001600160a01b031614612cd55760108481548110612c6557fe5b600091825260208220600260069092020101546040805163534a7e1d60e11b81526004810185905290516001600160a01b039092169263a694fc3a9260248084019382900301818387803b158015612cbc57600080fd5b505af1158015612cd0573d6000803e3d6000fd5b505050505b612cea81600d60006010888154811061222057fe5b600d600060108781548110612cfb57fe5b60009182526020808320600360069093020191909101546001600160a01b031683528201929092526040019020558451612d519086906001908110612d3c57fe5b6020026020010151601086815481106122bb57fe5b60108581548110612d5e57fe5b906000526020600020906006020160040181905550612d84826010868154811061230e57fe5b60108581548110612d9157fe5b60009182526020909120600690910201600501555050506001016128d8565b505050505050565b6005546001600160a01b03163314612e17576040805162461bcd60e51b815260206004820152600960248201527f4e6f74207661756c740000000000000000000000000000000000000000000000604482015290519081900360640190fd5b6007805473ffffffffffffffffffffffffffffffffffffffff19166001600160a01b0392909216919091179055565b600e6020526000908152604090205481565b6004546001600160a01b031681565b6040805160028082526060820183526000928392919060208301908036833701905050905060005b6010548110156130fe5760108181548110612ea657fe5b6000918252602082206001600690920201015483516001600160a01b03909116918491612ecf57fe5b6001600160a01b039283166020918202929092010152600054835191169083906001908110612efa57fe5b6001600160a01b039283166020918202929092018101919091526003546040805163d06ca61f60e01b8152670de0b6b3a76400006004820181815260248301938452885160448401528851600097959095169563d06ca61f9592948a94929390926064019185810191028083838c5b83811015612f81578181015183820152602001612f69565b50505050905001935050505060006040518083038186803b158015612fa557600080fd5b505afa158015612fb9573d6000803e3d6000fd5b505050506040513d6000823e601f3d908101601f191682016040526020811015612fe257600080fd5b810190808051604051939291908464010000000082111561300257600080fd5b90830190602082018581111561301757600080fd5b825186602082028301116401000000008211171561303457600080fd5b82525081516020918201928201910280838360005b83811015613061578181015183820152602001613049565b5050505090500160405250505090506130f36010838154811061308057fe5b9060005260206000209060060201600501546130ed6130e6670de0b6b3a764000061197c601088815481106130b157fe5b906000526020600020906006020160040154876001815181106130d057fe5b60200260200101516139a890919063ffffffff16565b8790613565565b90613565565b935050600101612e8f565b5060008061310d601254613adb565b909250905081156132f75760015483516001600160a01b0390911690849060009061313457fe5b6001600160a01b03928316602091820292909201015260005484519116908490600190811061315f57fe5b6001600160a01b039283166020918202929092018101919091526003546040805163d06ca61f60e01b815260048101878152602482019283528851604483015288516132f49688966130ed969091169463d06ca61f948b948d949093606490920191858101910280838360005b838110156131e45781810151838201526020016131cc565b50505050905001935050505060006040518083038186803b15801561320857600080fd5b505afa15801561321c573d6000803e3d6000fd5b505050506040513d6000823e601f3d908101601f19168201604052602081101561324557600080fd5b810190808051604051939291908464010000000082111561326557600080fd5b90830190602082018581111561327a57600080fd5b825186602082028301116401000000008211171561329757600080fd5b82525081516020918201928201910280838360005b838110156132c45781810151838201526020016132ac565b505050509050016040525050506001815181106132dd57fe5b60200260200101518761356590919063ffffffff16565b93505b50505090565b6002546001600160a01b031681565b600d6020526000908152604090205481565b600f6020526000908152604090205481565b6007546001600160a01b031681565b6003546001600160a01b031681565b6005546001600160a01b031681565b8015806133fc5750604080517fdd62ed3e0000000000000000000000000000000000000000000000000000000081523060048201526001600160a01b03848116602483015291519185169163dd62ed3e91604480820192602092909190829003018186803b1580156133ce57600080fd5b505afa1580156133e2573d6000803e3d6000fd5b505050506040513d60208110156133f857600080fd5b5051155b6134375760405162461bcd60e51b8152600401808060200182810382526036815260200180613f786036913960400191505060405180910390fd5b604080516001600160a01b038416602482015260448082018490528251808303909101815260649091019091526020810180516001600160e01b03167f095ea7b3000000000000000000000000000000000000000000000000000000001790526134a2908490613c2f565b505050565b60606134b68484600085613ce0565b90505b9392505050565b6001600160a01b0382166000908152600d60205260408120546011546134ea9061197c83866139a8565b91508082116134f957816134fb565b805b949350505050565b60008282111561355a576040805162461bcd60e51b815260206004820152601e60248201527f536166654d6174683a207375627472616374696f6e206f766572666c6f770000604482015290519081900360640190fd5b508082035b92915050565b6000828201838110156134f9576040805162461bcd60e51b815260206004820152601b60248201527f536166654d6174683a206164646974696f6e206f766572666c6f770000000000604482015290519081900360640190fd5b604080516002808252606082018352600092602083019080368337505060015482519293506000926001600160a01b039091169150839083906135fe57fe5b6001600160a01b03928316602091820292909201015260005483519116908390600190811061362957fe5b6001600160a01b0390921660209283029190910190910152601254156134a25761366460115461197c856012546139a890919063ffffffff16565b905060125481116136755780613679565b6012545b600b5460408051632e1a7d4d60e01b81526004810184905290519293506001600160a01b0390911691632e1a7d4d9160248082019260009290919082900301818387803b1580156136c957600080fd5b505af11580156136dd573d6000803e3d6000fd5b505060035460015460008054604080517fbaa2abde0000000000000000000000000000000000000000000000000000000081526001600160a01b03948516600482015291841660248301526044820188905260648201839052608482018390523060a48301524260c4830152805192965092909316935063baa2abde9260e480820193929182900301818787803b15801561377757600080fd5b505af115801561378b573d6000803e3d6000fd5b505050506040513d60408110156137a157600080fd5b50516003546040516338ed173960e01b8152600481018381526000602483018190523060648401819052426084850181905260a0604486019081528a5160a48701528a519798506001600160a01b03909616966338ed173996899694958c95909260c490910190602087810191028083838b5b8381101561382c578181015183820152602001613814565b505050509050019650505050505050600060405180830381600087803b15801561385557600080fd5b505af1158015613869573d6000803e3d6000fd5b505050506040513d6000823e601f3d908101601f19168201604052602081101561389257600080fd5b81019080805160405193929190846401000000008211156138b257600080fd5b9083019060208201858111156138c757600080fd5b82518660208202830111640100000000821117156138e457600080fd5b82525081516020918201928201910280838360005b838110156139115781810151838201526020016138f9565b50505050905001604052505050506139348260125461350390919063ffffffff16565b60125550505050565b604080516001600160a01b038416602482015260448082018490528251808303909101815260649091019091526020810180516001600160e01b03167fa9059cbb000000000000000000000000000000000000000000000000000000001790526134a2908490613c2f565b6000826139b75750600061355f565b828202828482816139c457fe5b04146134f95760405162461bcd60e51b8152600401808060200182810382526021815260200180613f0c6021913960400191505060405180910390fd5b6000808211613a57576040805162461bcd60e51b815260206004820152601a60248201527f536166654d6174683a206469766973696f6e206279207a65726f000000000000604482015290519081900360640190fd5b818381613a6057fe5b049392505050565b604080516001600160a01b0380861660248301528416604482015260648082018490528251808303909101815260849091019091526020810180516001600160e01b03167f23b872dd00000000000000000000000000000000000000000000000000000000179052610cb8908590613c2f565b600080600080600860009054906101000a90046001600160a01b03166001600160a01b0316630902f1ac6040518163ffffffff1660e01b815260040160606040518083038186803b158015613b2f57600080fd5b505afa158015613b43573d6000803e3d6000fd5b505050506040513d6060811015613b5957600080fd5b508051602091820151600854604080517f18160ddd00000000000000000000000000000000000000000000000000000000815290516dffffffffffffffffffffffffffff94851697509390921694506000936001600160a01b03909116926318160ddd926004808201939291829003018186803b158015613bd957600080fd5b505afa158015613bed573d6000803e3d6000fd5b505050506040513d6020811015613c0357600080fd5b50519050613c158161197c88866139a8565b9450613c258161197c88856139a8565b9350505050915091565b6000613c84826040518060400160405280602081526020017f5361666545524332303a206c6f772d6c6576656c2063616c6c206661696c6564815250856001600160a01b03166134a79092919063ffffffff16565b8051909150156134a257808060200190516020811015613ca357600080fd5b50516134a25760405162461bcd60e51b815260040180806020018281038252602a815260200180613f4e602a913960400191505060405180910390fd5b606082471015613d215760405162461bcd60e51b8152600401808060200182810382526026815260200180613ee66026913960400191505060405180910390fd5b613d2a85613e3b565b613d7b576040805162461bcd60e51b815260206004820152601d60248201527f416464726573733a2063616c6c20746f206e6f6e2d636f6e7472616374000000604482015290519081900360640190fd5b600080866001600160a01b031685876040518082805190602001908083835b60208310613db95780518252601f199092019160209182019101613d9a565b6001836020036101000a03801982511681845116808217855250505050505090500191505060006040518083038185875af1925050503d8060008114613e1b576040519150601f19603f3d011682016040523d82523d6000602084013e613e20565b606091505b5091509150613e30828286613e41565b979650505050505050565b3b151590565b60608315613e505750816134b9565b825115613e605782518084602001fd5b8160405162461bcd60e51b81526004018080602001828103825283818151815260200191508051906020019080838360005b83811015613eaa578181015183820152602001613e92565b50505050905090810190601f168015613ed75780820380516001836020036101000a031916815260200191505b509250505060405180910390fdfe416464726573733a20696e73756666696369656e742062616c616e636520666f722063616c6c536166654d6174683a206d756c7469706c69636174696f6e206f766572666c6f774f6e6c79205661756c742063616e2063616c6c20746869732066756e6374696f6e5361666545524332303a204552433230206f7065726174696f6e20646964206e6f7420737563636565645361666545524332303a20617070726f76652066726f6d206e6f6e2d7a65726f20746f206e6f6e2d7a65726f20616c6c6f77616e6365a2646970667358221220e2d45619bbddaaebe2042fa4c1f5b49e71ca8dc604963648ea4a058cdcec013664736f6c63430007060033416464726573733a20696e73756666696369656e742062616c616e636520666f722063616c6c5361666545524332303a204552433230206f7065726174696f6e20646964206e6f7420737563636565645361666545524332303a20617070726f76652066726f6d206e6f6e2d7a65726f20746f206e6f6e2d7a65726f20616c6c6f77616e6365",
    "linkReferences": {},
    "deployedLinkReferences": {}
}